:020000040000FA
:060000003CEF08F01200C5
:020006001200E6
:0800080007EF00F01200DACF4F
:10001000E4FFE2CFDAFFE9CFE4FFEACFE4FFF6CF77
:10002000E4FFF7CFE4FFF3CFE4FFF4CFE4FFFACF30
:10003000E4FF00EE00F0140EE80403E3EECFE4FF6B
:10004000FBD7E652F0A264D0F0920101005102E128
:10005000020E006F0101F751020A0BE0030A06E0ED
:10006000010A01E055D0010EF76F52D0030EF76F71
:100070004FD083044AE1010EF76F020E0101005DCB
:1000800043E101C107F09BEC06F005C014F006C087
:1000900015F007C016F008C017F0330E0A6E0B6E8D
:1000A000730E0C6E3F0E0D6E14C005F015C006F0F9
:1000B00016C007F017C008F0ACEC06F019EC07F01A
:1000C00007C001F102C107F09BEC06F005C014F077
:1000D00006C015F007C016F008C017F0CD0E0A6E66
:1000E000CC0E0B6E4C0E0C6E3F0E0D6E14C005F058
:1000F00015C006F016C007F017C008F0ACEC06F00B
:1001000019EC07F007C002F102D0030EF76F00D020
:10011000F2A264D0F2920101005102E1010E006FDF
:100120000101F751020A57E0030A06E0010A01E063
:1001300055D0020EF76F52D0800E835C49E1020E5B
:10014000F76F0101005D43E101C107F09BEC06F090
:1001500005C014F006C015F007C016F008C017F06F
:10016000330E0A6E0B6E730E0C6E3F0E0D6E14C0C6
:1001700005F015C006F016C007F017C008F0ACEC8B
:1001800006F019EC07F007C001F102C107F09BEC83
:1001900006F005C014F006C015F007C016F008C040
:1001A00017F0CD0E0A6ECC0E0B6E4C0E0C6E3F0E81
:1001B0000D6E14C005F015C006F016C007F017C08C
:1001C00008F0ACEC06F019EC07F007C002F102D021
:1001D000040EF76F03D0040EF76F00D0E55200EE67
:1001E00013F0140EE80403E3E5CFEDFFFBD7E5CFF2
:1001F000FAFFE5CFF4FFE5CFF3FFE5CFF7FFE5CF5B
:10020000F6FFE5CFEAFFE5CFE9FFE5CFDAFF110022
:100210000200D410000000010000ED000000941066
:0A0220000000000F00004000000085
:06022A00F292F288F19C43
:10023000F092F088F198F28EC180C182C184C186AB
:10024000928A9380956A836A0101070EF96FFA6FAB
:10025000FB6FFC6FFD6F200EFE6FDAEC05F078ECA3
:1002600005F06EEC05F0320EE66E180EE66E010E2D
:10027000E66E04EC05F0E552E552E55273EC05F04C
:10028000320EE66E260EE66E010EE66E04EC05F00A
:10029000E552E552E5520101F86B0A0EF85D08E2FD
:1002A000FA0EE66E15EC08F0E5520101F82BF5D7D1
:1002B0006EEC05F0140EE66E070EE66E010EE66EAD
:1002C00004EC05F0E552E552E55273EC05F0140E2E
:1002D000E66E070EE66E010EE66E04EC05F0E552E2
:1002E000E552E5526EEC05F0140EE66E370EE66E42
:1002F000010EE66E04EC05F0E552E552E55273ECB2
:1003000005F0140EE66E460EE66E010EE66E04EC87
:1003100005F0E552E552E5520101000501E083D008
:100320006EEC05F0140EE66E070EE66E010EE66E3C
:1003300004EC05F0E552E552E55273EC05F0140EBD
:10034000E66E070EE66E010EE66E04EC05F0E55271
:10035000E552E5526EEC05F0140EE66E570EE66EB1
:10036000010EE66E04EC05F0E552E552E55273EC41
:1003700005F0140EE66E750EE66E010EE66E04ECE8
:1003800005F0E552E552E5520101F86B0A0EF85D01
:1003900008E2FA0EE66E15EC08F0E5520101F82BC2
:1003A000F5D76EEC05F0140EE66E070EE66E010E44
:1003B000E66E04EC05F0E552E552E55273EC05F00B
:1003C000140EE66E070EE66E010EE66E04EC05F006
:1003D000E552E552E5526EEC05F0140EE66E820E23
:1003E000E66E010EE66E04EC05F0E552E552E552CC
:1003F00073EC05F0140EE66E920EE66E010EE66EDC
:1004000004EC05F0E552E552E5520101F86B0A0EE5
:10041000F85D08E2FA0EE66E15EC08F0E55201010F
:10042000F82BF5D788D0020E005D01E083D06EEC8A
:1004300005F0140EE66E070EE66E010EE66E04EC95
:1004400005F0E552E552E55273EC05F0140EE66E48
:10045000070EE66E010EE66E04EC05F0E552E5527D
:10046000E5526EEC05F0140EE66E660EE66E010EB9
:10047000E66E04EC05F0E552E552E55273EC05F04A
:10048000140EE66E750EE66E010EE66E04EC05F0D7
:10049000E552E552E5520101F86B0A0EF85D08E2FB
:1004A000FA0EE66E15EC08F0E5520101F82BF5D7CF
:1004B0006EEC05F0140EE66E070EE66E010EE66EAB
:1004C00004EC05F0E552E552E55273EC05F0140E2C
:1004D000E66E070EE66E010EE66E04EC05F0E552E0
:1004E000E552E5526EEC05F0140EE66E820EE66EF5
:1004F000010EE66E04EC05F0E552E552E55273ECB0
:1005000005F0140EE66E920EE66E010EE66E04EC39
:1005100005F0E552E552E5520101F86B0A0EF85D6F
:1005200008E2FA0EE66E15EC08F0E5520101F82B30
:10053000F5D701D0F1D678EC05F06EEC05F0140E8D
:10054000E66EA20EE66E010EE66E04EC05F0E552D4
:10055000E552E55273EC05F0140EE66EB30EE66E4E
:10056000010EE66E04EC05F0E552E552E552B3D813
:1005700007D90101F76B0101F75101E1836AF70522
:100580001AE1010E836E01C1E6FF15EC08F0E55299
:100590000101F7050CE1800E835C09E08350E8243B
:1005A000836E02C1E6FF15EC08F0E552F1D7F705BE
:1005B00002E1040EF76F020EF75D1BE1800E836E01
:1005C00001C1E6FF15EC08F0E552020E0101F75DEE
:1005D0000BE1830409E083407F0B836E02C1E6FFD9
:1005E00015EC08F0E552F1D7020EF75D02E1030EBB
:1005F000F76F030EF75D20E1836A01010305036FC6
:100600000529056F3C0E016F7D0E026F64D8010154
:10061000F86B0A0EF85D09E27D0EE66E15EC08F047
:10062000E552837E0101F82BF4D70101035102E169
:10063000FCD802D00101F76B040E0101F75D20E147
:10064000836A01010405046F0629066F3C0E016FE1
:100650007D0E026F95D80101F86B0A0EF85D09E274
:100660007D0EE66E15EC08F0E55283700101F82B63
:10067000F4D70101045102E1D8D802D00101F76B8F
:10068000050E0101F75D25E1F76B0101050E036F12
:10069000046F056B066B78EC05F06EEC05F0140E3C
:1006A000E66EA20EE66E010EE66E04EC05F0E55273
:1006B000E552E55273EC05F0140EE66EB30EE66EED
:1006C000010EE66E04EC05F0E552E552E55203D862
:1006D00057D851D712006EEC05F0C40EE66E010E2D
:1006E000E66ECFEC04F0E552E5526EEC05F0010148
:1006F0000351050A28E0010A20E0070A18E0010A70
:1007000010E0030A08E0010A01E023D0E66AA8EC41
:1007100004F0E5521ED0010EE66EA8EC04F0E5529E
:1007200018D0020EE66EA8EC04F0E55212D0030ECB
:10073000E66EA8EC04F0E5520CD0040EE66EA8ECD0
:1007400004F0E55206D0050EE66EA8EC04F0E55282
:1007500000D00101F86B010103510101F85D0FE2C6
:1007600001010551EA6AF90FE96E010EEA22EF5024
:10077000E66EA8EC04F0E5520101F82BECD712006C
:1007800073EC05F0C40EE66E010EE66ECFEC04F0DD
:10079000E552E55273EC05F001010451050A28E029
:1007A000010A20E0070A18E0010A10E0030A08E045
:1007B000010A01E023D0E66AA8EC04F0E5521ED05D
:1007C000010EE66EA8EC04F0E55218D0020EE66EBB
:1007D000A8EC04F0E55212D0030EE66EA8EC04F08B
:1007E000E5520CD0040EE66EA8EC04F0E55206D0FB
:1007F000050EE66EA8EC04F0E55200D00101F86B9E
:10080000010104510101F85D0FE201010651EA6A9C
:10081000F90FE96E010EEA22EF50E66EA8EC04F043
:10082000E5520101F82BECD712000101035129E137
:1008300073EC05F0140EE66E070EE66E010EE66E22
:1008400004EC05F0E552E552E55273EC05F0140EA8
:10085000E66EDC0EE66E010EE66E04EC05F0E55287
:10086000E552E5520101F86B0A0EF85D08E2FA0E56
:10087000E66E15EC08F0E5520101F82BF5D7050EF0
:10088000F76F0101045129E16EEC05F0140EE66EDC
:10089000070EE66E010EE66E04EC05F0E552E55239
:1008A000E5526EEC05F0140EE66ECB0EE66E010E10
:1008B000E66E04EC05F0E552E552E5520101F86BF5
:1008C0000A0EF85D08E2FA0EE66E15EC08F0E55245
:0C08D0000101F82BF5D7050EF76F1200A0
:0408DC00320EE66E84
:1008E00015EC08F0E5521200D9CFE6FFE1CFD9FFB1
:1008F0008994400EC96E9EA6FED79E96120EC96EB2
:100900009EA6FED79E96FE0EDB50C96E9EA6FED713
:100910009E968984E552E7CFD9FF1200D9CFE6FF32
:10092000E1CFD9FF8994400EC96E9EA6FED79E9650
:10093000130EC96E9EA6FED79E96FE0EDB50C96EA4
:100940009EA6FED79E968984E552E7CFD9FF120076
:10095000D9CFE6FFE1CFD9FF800EE66EC5DFE552C5
:10096000140EE66E15EC08F0E552FE0EDBCFE6FF46
:10097000D5DFE5520000000000000000C00EE66E6A
:10098000B3DFE5520000000000000000000000009E
:10099000E66AAADFE552E552E7CFD9FF1200D9CFC8
:1009A000E6FFE1CFD9FF800EE66E9EDFE55296DFCF
:1009B000FD0EDBCFE9FFFE0EDBCFEAFFEF500A08AA
:1009C0001FE0FD0EDBCFE9FFDB2AFE0EDBCFEAFFE7
:1009D00001E3DB2AEF50E66EA1DFE55200000000E4
:1009E00000000000C00EE66E7FDFE5520000000050
:1009F0000000000000000000E66A76DFE552D8D76C
:100A0000E552E7CFD9FF1200D9CFE6FFE1CFD9FFFA
:100A1000140EF36EFC0EDBCFF4FFF350F45C05E232
:100A2000140EF36EFC0EF3CFDBFF800EE66E5CDF80
:100A3000E55254DFFD0EDBCFE9FFFE0EDBCFEAFF10
:100A4000EF500A0825E0FD0EDBCFE9FFDB2AFE0EA2
:100A5000DBCFEAFF01E3DB2AEF50E66E5FDFE55212
:100A60000000000000000000C00EE66E3DDFE55211
:100A7000000000000000000000000000E66A34DF13
:100A8000E552FC0EDBCFE6FF15EC08F0E552D2D7BD
:100A9000E552E7CFD9FF1200D9CFE6FFE1CFD9FF6A
:100AA000E66A22DFE5521ADFFE0EDBCFE6FF36DF15
:100AB000E5520000000000000000400EE66E14DF6A
:100AC000E552000000000000000000000000E66A9F
:100AD0000BDFE552E552E7CFD9FF1200800EE66E3C
:100AE000DBDFE5521200C00EE66ED6DFE5521200E3
:100AF000010EE66ED1DFE5521200D9CFE6FFE1CF5D
:100B0000D9FFE66AF1DEE552FE0EDBCFE6FF06DF37
:100B1000E552000000000000400EE66EE5DEE55202
:100B200000000000000000000000000000000000C5
:100B30000000E66AD9DEE552E552E7CFD9FF1200A0
:100B4000D9CFE6FFE1CFD9FF8994400EC96E9EA6AA
:100B5000FED79E96C96A9EA6FED79E96FE0EDB50D5
:100B6000C96E9EA6FED79E968984E552E7CFD9FF2F
:100B70001200D9CFE6FFE1CFD9FF8994400EC96EAC
:100B80009EA6FED79E96010EC96E9EA6FED79E9685
:100B9000FE0EDB50C96E9EA6FED79E968984E55256
:100BA000E7CFD9FF12009496949A220EC66EC78C96
:100BB0009E96120092948984320EE66E15EC08F02F
:100BC000E552979C8E9C140EE66E15EC08F0E552EB
:100BD0008E8CE9DFE66AB4DFE552E66ACADFE552E9
:100BE000E66A82DEE552140EE66E15EC08F0E55278
:100BF0003C0EE66E82DFE552140EE66E15EC08F050
:100C0000E5520C0EE66E79DFE552140EE66E15EC39
:100C100008F0E552010EE66E70DFE552140EE66E46
:100C200015EC08F0E552060EE66E67DFE552200E81
:100C3000E66E0F0EE66EE66A4AD8E552E552E552D8
:100C4000300EE66E0F0EE66E010EE66E40D8E552EF
:100C5000E552E552180EE66E0F0EE66E020EE66ED7
:100C600036D8E552E552E552100EE66E0F0EE66EEE
:100C7000030EE66E2CD8E552E552E552080EE66EFC
:100C80000F0EE66E040EE66E22D8E552E552E552EE
:100C9000000EE66E0F0EE66E050EE66E18D8E552F3
:100CA000E552E552280EE66E0F0EE66E060EE66E73
:100CB0000ED8E552E552E552380EE66E0F0EE66E9E
:100CC000070EE66E04D8E552E552E5521200D9CF80
:100CD000E6FFE1CFD9FFE652080EF36EFE0EDBCF42
:100CE000F4FFF350F45C1EE2FE0EDB50080DF350EF
:100CF000400FE66ED1DEE552DF6A080EDF5C12E2DD
:100D0000DF50E76EFC0EDBCFE9FFFD0EDBCFEAFF25
:100D1000E750E926000EEA22EF50E66E19DEE552B2
:100D2000DF2AEBD7800EE66EB7DEE552E552E552DC
:060D3000E7CFD9FF12001D
:0A0D36000F9E05D00F9E07AE02D0FD
:100D4000076C0F8E07C001F0006A136A126A860EE4
:100D5000026E036A5CEF07F00F6A98EC07F0B0ECE4
:100D600007F00FB640EF07F00FA205D00FB840EF25
:100D700007F047EF07F00FAA05D00FB040EF07F0DC
:100D800047EF07F00FB002D00FA802D053EF07F0E3
:100D9000036A0D500824026EE86A03227E0E025E8A
:100DA000E86A035A126A136A006A016A0C50070261
:100DB000F4CF01F0F3CF00F00B500702F3501326ED
:100DC000F4500022000E01220C500602F3501326AC
:100DD000F4500022000E01220A500702F35012269E
:100DE000F4501322000E002201220B500602F35091
:100DF0001226F4501322000E002201220C5005028C
:100E0000F3501226F4501322000E002201220A5041
:100E10000602F4501226000E1322002201220B506B
:100E20000502F4501226000E1322002201225CEF6C
:100E300007F00F6A98EC07F00FB623EF07F00FA248
:100E40000AD00FB403D07F0E076E19D0800E076E44
:100E500016D0076A14D00FB0FCD7870E0860F1D700
:100E60007E0E0864F6D7860E085C04E0D890073240
:100E7000082AF9D70FA403D0076C07AEEAD71200EF
:100E80007F0E086EFF0E076E066E056E12007F0E57
:100E90000FBEFF0E086E02D07F0E086E800E076E2A
:100EA000066A056AF3D70FAE04D0800E086E076A93
:100EB000F7D7086A076AF4D7015000101310121010
:100EC000F8E003BEF0D701BE0CD002500310EBE0F7
:100ED000D89012361336003601360206D8A0030623
:100EE000F2D70350D4E10228D2E012AE11D07F0E27
:100EF000121402E113A00CD0132AE86A0022012286
:100F000007E3D880013200321332022A0228BFE000
:100F10000250C9E013C005F000C006F00134076EAE
:100F20000230086E0732089E0FBE088E46EF07F0AB
:100F30000736083602E30F840F7E06E10F80086A49
:100F4000076A066A056A1200082803E0D88007329B
:100F50001200D890073202E10F8212000F861200B1
:100F60000C360D3602E30F8C0F7E06E10F880D6AFA
:100F70000C6A0B6A0A6A12000D2803E0D8800C3252
:0C0F80001200D8900C32EAE10F8A120037
:040F8C00100EF66EDF
:100F9000020EF76E000EF86E01010900F550F26FB7
:100FA0000900F550F36F03E1F26701D03DD009006D
:100FB000F550ED6F0900F550EE6F0900F550EF6F39
:100FC00009000900F550E96E0900F550EA6E0900C4
:100FD00009000900F550F06F0900F550F16F0900A4
:100FE0000900F6CFF4F1F7CFF5F1F8CFF6F1EDC146
:100FF000F6FFEEC1F7FFEFC1F8FF0101F05302E188
:10100000F15307E00900F550EE6EF007F8E2F10742
:10101000F9D7F4C1F6FFF5C1F7FFF6C1F8FF0101FA
:0A102000F207000EF35BBFD71200C9
:06102A00FF0EE350196EF9
:10103000EF0E01D0F30EE76EE72E1CEF08F00C0E5A
:10104000186EE76AE72E22EF08F0182E21EF08F05D
:08105000192E1AEF08F012003E
:08105800600EF36E00EE00F0E3
:101060000F0E01D81200EA6002D0EE6AFCD7F350EE
:08107000E9601200EE6AFCD7F2
:081078001EEE00F02EEE00F068
:10108000F86A0F9CC6EC07F003EC00F015EC01F0D9
:04109000FBD7120078
:0C109400000A0A001F110E00000A0A00EA
:1010A00004110E00000A000004001F00000A0004E2
:1010B000000E1100110A1104000E110000040404B6
:1010C000150E04000A110A0004000E11000A151181
:0410D0000A0400000E
:0C10D400003C7D050500002020202020AD
:1010E00020202020202020202020200A20202057DF
:1010F000454C434F4D4520544F0A050505205049A6
:10110000432D504F4E47200000000A202053656CAD
:10111000656374206D6F64653A0A052045617379D3
:10112000062020064861726420000A2005204561DF
:101130007379206D6F646520050A20002048617274
:1011400064206D6F646520000A20202073656C6543
:1011500063746564210A20062053746172742077D9
:1011600068656E20060A2006202020726561647979
:1011700021202020060A2020202020202020506C22
:101180006179657220310A20202020202020205003
:101190006C6179657220320A2020202020200A0507
:1011A000506C6179657220312077696E7321050A70
:1011B00005506C6179657220322077696E73210564
:0111C0000A24
:020000040030CA
:0100010006F8
:0100020019E4
:010003001EDE
:010005008377
:010006008178
:00000001FF
