:020000040000FA
:0600000017EF06F01200EC
:020006000000F8
:08000800D9CFE6FFE1CFD9FFDB
:10001000780EE126C80EDF6EDE52480EDD6E650EEC
:10002000F36E020EF3CFDBFF6C0EF36E030EF3CF15
:10003000DBFF6C0EF36E040EF3CFDBFF6F0EF36E7F
:10004000050EF3CFDBFF200EF36E060EF3CFDBFFC2
:10005000450EF36E070EF3CFDBFF430EF36E080E73
:10006000F3CFDBFF530EF36E090EF3CFDBFF310E40
:10007000F36E0A0EF3CFDBFF300EF36E0B0EF3CFF1
:10008000DBFF300EF36E0C0EF3CFDBFF310EF36EA1
:100090000D0EF3CFDBFF0A0EF36E0E0EF3CFDBFF78
:1000A000450EF36E0F0EF3CFDBFF740EF36E100EE2
:1000B000F3CFDBFF680EF36E110EF3CFDBFF610EA3
:1000C000F36E120EF3CFDBFF6E0EF36E130EF3CF53
:1000D000DBFF0A0EF36E140EF3CFDBFF530EF36E4D
:1000E000150EF3CFDBFF740EF36E160EF3CFDBFFAE
:1000F000650EF36E170EF3CFDBFF700EF36E180E66
:10010000F3CFDBFF680EF36E190EF3CFDBFF610E4A
:10011000F36E1A0EF3CFDBFF6E0EF36E1B0EF3CFF2
:10012000DBFF200EF36E1C0EF3CFDBFF440EF36EED
:100130001D0EF3CFDBFF0A0EF36E1E0EF3CFDBFFB7
:10014000430EF36E1F0EF3CFDBFF6F0EF36E200E28
:10015000F3CFDBFF6E0EF36E210EF3CFDBFF6F0EDE
:10016000F36E220EF3CFDBFF720EF36E230EF3CF8E
:10017000DBFF200EF36E240EF3CFDBFF440EF36E95
:10018000250EF3CFDBFF0A0EF36E260EF3CFDBFF57
:10019000430EF36E270EF3CFDBFF6F0EF36E280EC8
:1001A000F3CFDBFF6E0EF36E290EF3CFDBFF6F0E86
:1001B000F36E2A0EF3CFDBFF720EF36E2B0EF3CF2E
:1001C000DBFF200EF36E2C0EF3CFDBFF460EF36E3B
:1001D0002D0EF3CFDBFF0A0EF36E2E0EF3CFDBFFF7
:1001E000500EF36E2F0EF3CFDBFF650EF36E300E65
:1001F000F3CFDBFF690EF36E310EF3CFDBFF0A0E98
:10020000F36E320EF3CFDBFF530EF36E330EF3CFEC
:10021000DBFF740EF36E340EF3CFDBFF650EF36E6F
:10022000350EF3CFDBFF700EF36E360EF3CFDBFF30
:10023000680EF36E370EF3CFDBFF610EF36E380EF0
:10024000F3CFDBFF6E0EF36E390EF3CFDBFF200E24
:10025000F36E3A0EF3CFDBFF4C0EF36E3B0EF3CF93
:10026000DBFF0A0EF36E3C0EF3CFDBFF520EF36E94
:100270003D0EF3CFDBFF6F0EF36E3E0EF3CFDBFFD1
:100280006E0EF36E3F0EF3CFDBFF610EF36E400E8A
:10029000F3CFDBFF6E0EF36E410EF3CFDBFF0A0EE2
:1002A000F36E420EF3CFDBFF430EF36EF3CFDBFFB3
:1002B000610EF36E440EF3CFDBFF680EF36E450E56
:1002C000F3CFDBFF610EF36E460EF3CFDBFF6E0E56
:1002D000F36E470EF3CFDBFF0A0EF36E480EF3CF3B
:1002E000DBFF4D0EF36E490EF3CFDBFF610EF36EB5
:1002F0004A0EF3CFDBFF650EF36E4B0EF3CFDBFF41
:10030000760EF36E4C0EF3CFDBFF650EF36E4D0EE3
:10031000F3CFDBFF0A0EF36E4E0EF3CFDBFFF36E6F
:100320004F0EF3CFDBFF690EF36E500EF3CFDBFF02
:10033000610EF36E510EF3CFDBFF6C0EF36E520EB7
:10034000F3CFDBFF6C0EF36E530EF3CFDBFF0A0E21
:10035000F36E540EF3CFDBFF4A0EF36E550EF3CF60
:10036000DBFF610EF36E560EF3CFDBFF630EF36E11
:10037000570EF3CFDBFF6B0EF36E580EF3CFDBFFA0
:100380000A0EF36E590EF3CFDBFF540EF36E5A0EC6
:10039000F3CFDBFF690EF36E5B0EF3CFDBFF6D0E69
:1003A000F36E5C0EF3CFDBFF6F0EF36E5D0EF3CFDB
:1003B000DBFF740EF36E5E0EF3CFDBFF680EF36EA1
:1003C0005F0EF3CFDBFF790EF36E600EF3CFDBFF32
:1003D0000A0EF36E610EF3CFDBFF410EF36E620E79
:1003E000F3CFDBFF640EF36E630EF3CFDBFF610E22
:1003F000F36E640EF3CFDBFF6D0EF36E650EF3CF7D
:10040000DBFF0A0EF36E660EF3CFDBFF200EF36EFA
:10041000670EF3CFDBFF200EF36E680EF3CFDBFF2A
:10042000200EF36E690EF3CFDBFF200EF36E6A0E23
:10043000F3CFDBFF200EF36E6B0EF3CFDBFF200E4E
:10044000F36E6C0EF3CFDBFF200EF36E6D0EF3CF69
:10045000DBFF200EF36E6E0EF3CFDBFF200EF36E8C
:100460006F0EF3CFDBFF200EF36E700EF3CFDBFFCA
:10047000200EF36E710EF3CFDBFF200EF36E720EC3
:10048000F3CFDBFF200EF36E730EF3CFDBFF200EF6
:10049000F36E740EF3CFDBFF200EF36E750EF3CF09
:1004A000DBFF200EF36E760EF3CFDBFF0A0EF36E4A
:1004B000770EF3CFDBFF63EC05F001EC05F0F7EC12
:1004C00004F0320EE66ED950010FE66E000EDA200F
:1004D000E66E8DEC04F0E552E552E552FCEC04F0DA
:1004E000FCEC04F0140EE66ED950670FE66E000EB9
:1004F000DA20E66E8DEC04F0E552E552E552FCECB4
:1005000004F0DFCFE6FFD9500F0FE66E000EDA20C1
:10051000E66E8DEC04F0E552E552E552FA0EE66E19
:10052000F0EC05F0E552FCEC04F0140EE66ED95048
:10053000670FE66E000EDA20E66E8DEC04F0E552F1
:10054000E552E552FCEC04F0DFCFE6FFD950150F81
:10055000E66E000EDA20E66E8DEC04F0E552E55210
:10056000E552FA0EE66EF0EC05F0E552FCEC04F014
:10057000140EE66ED950670FE66E000EDA20E66EB6
:100580008DEC04F0E552E552E552FCEC04F0DFCFCF
:10059000E6FFD9501F0FE66E000EDA20E66E8DECF6
:1005A00004F0E552E552E552FA0EE66EF0EC05F085
:1005B000E552FCEC04F0140EE66ED950670FE66EBF
:1005C000000EDA20E66E8DEC04F0E552E552E552BD
:1005D000FCEC04F0DFCFE6FFD950270FE66E000EEB
:1005E000DA20E66E8DEC04F0E552E552E552FA0EA3
:1005F000E66EF0EC05F0E552FCEC04F0140EE66E4D
:10060000D950670FE66E000EDA20E66E8DEC04F02E
:10061000E552E552E552FCEC04F0DFCFE6FFD9509D
:100620002F0FE66E000EDA20E66E8DEC04F0E55238
:10063000E552E552FA0EE66EF0EC05F0E552FCEC00
:1006400004F0140EE66ED950670FE66E000EDA2045
:10065000E66E8DEC04F0E552E552E552FCEC04F058
:10066000DFCFE6FFD950330FE66E000EDA20E66EDC
:100670008DEC04F0E552E552E552FA0EE66EF0EC30
:1006800005F0E552FCEC04F0140EE66ED950670F4D
:10069000E66E000EDA20E66E8DEC04F0E552E552CF
:1006A000E552FCEC04F0DFCFE6FFD9503D0FE66EDB
:1006B000000EDA20E66E8DEC04F0E552E552E552CC
:1006C000FA0EE66EF0EC05F0E552FCEC04F0140EC8
:1006D000E66ED950670FE66E000EDA20E66E8DECFE
:1006E00004F0E552E552E552FCEC04F0DFCFE6FF02
:1006F000D950430FE66E000EDA20E66E8DEC04F062
:10070000E552E552E552FA0EE66EF0EC05F0E552E0
:10071000FCEC04F0DFCFE6FFD950490FE66E000E87
:10072000DA20E66E8DEC04F0E552E552E552FA0E61
:10073000E66EF0EC05F0E552FCEC04F0DFCFE6FFEE
:10074000D9504F0FE66E000EDA20E66E8DEC04F005
:10075000E552E552E552FA0EE66EF0EC05F0E55290
:10076000FCEC04F0DFCFE6FFD950550FE66E000E2B
:10077000DA20E66E8DEC04F0E552E552E552FA0E11
:10078000E66EF0EC05F0E552FCEC04F0DFCFE6FF9E
:10079000D9505A0FE66E000EDA20E66E8DEC04F0AA
:1007A000E552E552E552FA0EE66EF0EC05F0E55240
:1007B000FCEC04F0DFCFE6FFD950620FE66E000ECE
:1007C000DA20E66E8DEC04F0E552E552E552FA0EC1
:1007D000E66EF0EC05F0E55283D6780EE15C02E2BD
:0E07E000E16AE552E16EE552E7CFD9FF120063
:0207EE00320EC9
:1007F000E66EF0EC05F0E5521200D9CFE6FFE1CF4E
:10080000D9FF8994400EC96E9EA6FED79E96120E01
:10081000C96E9EA6FED79E96FE0EDB50C96E9EA6A2
:10082000FED79E968984E552E7CFD9FF1200D9CF33
:10083000E6FFE1CFD9FF8994400EC96E9EA6FED790
:100840009E96130EC96E9EA6FED79E96FE0EDB5098
:10085000C96E9EA6FED79E968984E552E7CFD9FF42
:100860001200D9CFE6FFE1CFD9FF800EE66EC5DFDB
:10087000E552140EE66EF0EC05F0E552FE0EDBCF0D
:10088000E6FFD5DFE5520000000000000000C00ECA
:10089000E66EB3DFE552000000000000000000003B
:1008A0000000E66AAADFE552E552E7CFD9FF120061
:1008B000D9CFE6FFE1CFD9FF800EE66E9EDFE5528D
:1008C00096DFFD0EDBCFE9FFFE0EDBCFEAFFEF5038
:1008D0000A081FE0FD0EDBCFE9FFDB2AFE0EDBCFAF
:1008E000EAFF01E3DB2AEF50E66EA1DFE5520000EC
:1008F000000000000000C00EE66E7FDFE552000041
:1009000000000000000000000000E66A76DFE5520B
:10091000D8D7E552E7CFD9FF1200D9CFE6FFE1CF14
:10092000D9FF140EF36EFC0EDBCFF4FFF350F45C32
:1009300005E2140EF36EFC0EF3CFDBFF800EE66EC5
:100940005CDFE55254DFFD0EDBCFE9FFFE0EDBCFAF
:10095000EAFFEF500A0825E0FD0EDBCFE9FFDB2AB6
:10096000FE0EDBCFEAFF01E3DB2AEF50E66E5FDF2E
:10097000E5520000000000000000C00EE66E3DDF02
:10098000E552000000000000000000000000E66AE0
:1009900034DFE552FC0EDBCFE6FFF0EC05F0E5526C
:1009A000D2D7E552E7CFD9FF1200D9CFE6FFE1CF8A
:1009B000D9FFE66A22DFE5521ADFFE0EDBCFE6FF43
:1009C00036DFE5520000000000000000400EE66E39
:1009D00014DFE552000000000000000000000000ED
:1009E000E66A0BDFE552E552E7CFD9FF1200800E31
:1009F000E66EDBDFE5521200C00EE66ED6DFE55292
:100A00001200010EE66ED1DFE5521200D9CFE6FFEB
:100A1000E1CFD9FFE66AF1DEE552FE0EDBCFE6FF5D
:100A200006DFE552000000000000400EE66EE5DE45
:100A3000E55200000000000000000000000000007F
:100A400000000000E66AD9DEE552E552E7CFD9FFA3
:100A50001200D9CFE6FFE1CFD9FF8994400EC96ECD
:100A60009EA6FED79E96C96A9EA6FED79E96FE0EAD
:100A7000DB50C96E9EA6FED79E968984E552E7CFCD
:100A8000D9FF1200D9CFE6FFE1CFD9FF8994400EFC
:100A9000C96E9EA6FED79E96010EC96E9EA6FED773
:100AA0009E96FE0EDB50C96E9EA6FED79E9689844A
:100AB000E552E7CFD9FF12009496949A220EC66EA3
:100AC000C78C9E96120092948984320EE66EF0ECEA
:100AD00005F0E552979C8E9C140EE66EF0EC05F046
:100AE000E5528E8CE9DFE66AB4DFE552E66ACADFDA
:100AF000E552E66A82DEE552140EE66EF0EC05F091
:100B0000E5523C0EE66E82DFE552140EE66EF0EC26
:100B100005F0E5520C0EE66E79DFE552140EE66E36
:100B2000F0EC05F0E552010EE66E70DFE552140EB2
:100B3000E66EF0EC05F0E552060EE66E67DFE55274
:020B40001200A1
:0E0B4200060EF66E000EF76E000EF86E0F0136
:100B50000900F550056F0900F550066F03E10567C0
:100B600001D03DD00900F550006F0900F550016F2C
:100B70000900F550026F09000900F550E96E0900FF
:100B8000F550EA6E090009000900F550036F0900ED
:100B9000F550046F09000900F6CF07FFF7CF08FFF3
:100BA000F8CF09FF00CFF6FF01CFF7FF02CFF8FF24
:100BB0000F01035302E1045307E00900F550EE6E04
:100BC0000307F8E20407F9D707CFF6FF08CFF7FFCE
:100BD00009CFF8FF0F010507000E065BBFD7120013
:100BE000FF0EE350036EEF0E01D0F30EE76EE72E1B
:100BF000F7EF05F00C0E026EE76AE72EFDEF05F049
:0E0C0000022EFCEF05F0032EF5EF05F01200BA
:020C0E00600E76
:100C1000F36E00EE00F00F0E01D81200EA6002D071
:0E0C2000EE6AFCD7F350E9601200EE6AFCD7D2
:020C2E001EEEB8
:100C300000F02EEE00F0F86A019CA1EC05F025EC26
:0A0C400006F004EC00F0FBD71200F0
:020C4A00120096
:020000040030CA
:0100010006F8
:0100020019E4
:010003001EDE
:010005008377
:010006008178
:00000001FF
